:020000040800F2
:10000000C80600209D010008B3140008C7130008AB
:10001000B1140008070300087B1600080000000068
:10002000000000000000000000000000B7140008FD
:100030001D04000800000000B5140008B9140008F1
:10004000B7010008B7010008B7010008B7010008B0
:10005000B7010008B7010008B7010008B7010008A0
:10006000B70100081F04000825040008B7010008B4
:10007000B7010008B7010008B7010008B701000880
:100080006D030008B7010008B7010008B7010008B8
:10009000B7010008B7010008B7010008B701000860
:1000A000B7010008B7010008B7010008B701000850
:1000B000B7010008B7010008B7010008B701000840
:1000C000B7010008B7010008B7010008B701000830
:1000D000B7010008B7010008B7010008B701000820
:1000E000B7010008B7010008B7010008B701000810
:1000F000B7010008B7010008B7010008B701000800
:10010000B7010008B7010008B7010008B7010008EF
:10011000B7010008B7010008B7010008B7010008DF
:10012000B7010008B7010008B7010008B7010008CF
:10013000B7010008B7010008B7010008B7010008BF
:10014000B7010008B7010008B7010008B7010008AF
:10015000B7010008B7010008B7010008B70100089F
:10016000B7010008B7010008B7010008B70100088F
:10017000B7010008B7010008B7010008000000003F
:10018000B7010008B7010008DFF80CD000F07AF8DA
:1001900000480047BD160008C806002006488047F2
:1001A00006480047FEE7FEE7FEE7FEE7FEE7FEE75C
:1001B000FEE7FEE7FEE7FEE72D15000889010008CF
:1001C0002DE9F05F0546002092469B46884606468C
:1001D000814640241BE0284641464746224600F01F
:1001E00041F853465A46C01A914110D31146184659
:1001F000224600F028F82D1A67EB01084F462246E8
:100200000120002100F01FF817EB00094E41201ECD
:10021000A4F10104DFDC484631462A464346BDE8E6
:10022000F09FD2B201E000F8012B491EFBD27047CB
:100230000022F6E710B513460A4604461946FFF7B2
:10024000F0FF204610BD202A04DB203A00FA02F11C
:10025000002070479140C2F1200320FA03F31943B4
:1002600090407047202A04DB203A21FA02F0002156
:10027000704721FA02F3D040C2F1200291400843B6
:1002800019467047064C074D06E0E06840F0010350
:1002900094E8070098471034AC42F6D3FFF778FF94
:1002A000601700088017000870B58D1810F8014B12
:1002B00014F0030201D110F8012B231106D110F81C
:1002C000013B03E010F8016B01F8016B521EF9D1FC
:1002D000ABB110F8012B04F00C048A1A0C2C03D0DB
:1002E000A2EB84129B1C08E010F8014BA2EB042245
:1002F000F8E712F8014B01F8014B5B1EF9D5A94252
:10030000D4D3002070BDFEE710B5846B204600F00A
:10031000CBF80120207110BD10B5846B204600F091
:1003200085F80120207110BD10B5846B206940F064
:1003300004002061204600F0B9F80120207110BDB2
:1003400010B5846B206940F004002061204600F065
:100350006FF80120207110BD10B5806B00F0A5F87A
:1003600010BD10B5806B00F062F810BD014800F0C0
:1003700083B900006802002001681823CAB2103A4D
:10038000B2FBF3F2054B6FF30901032A9B5CC365D3
:1003900000D9091D8165084670470000481700080C
:1003A00010B5014600208B698A6A4FF0C07453B1C2
:1003B000B3F5005F15D072B1012A0CD0022A0AD021
:1003C000032A09D104E01AB1012A06D0022A03D176
:1003D000C96AC90100D5012010BDC96AA142FAD07D
:1003E00010BD002AF7D0012AF2D0022AF3D0032A46
:1003F000F3D010BD30B50468256825F4802525604C
:10040000046863608368402B036803D099600068C8
:10041000C26030BD9A600068C16030BD704708207E
:1004200000F0BCBA102000F0B9BA704770477047AE
:10043000704770B54379012B13D001244471022316
:10044000037105682B684FF47C668E4042F0800291
:10045000B3438A4013432B60047100214171084665
:1004600070BD022070BD70B54379012B1AD00126F2
:1004700046710223037105682C6840F6FE739340B1
:100480009C43D1E900310B43934023432B60016827
:100490000B68C0249440A3430B6006710021417196
:1004A000084670BD022070BD70477047704770B538
:1004B000040003D02079002510B105E0012070BDB3
:1004C0006571204600F008F80220207125610120A6
:1004D0002071002070BD000070B586B00546142163
:1004E0006846FFF7A5FE1F492868884238D11E4894
:1004F0000026016841F000510160006800F00050E2
:10050000059019481038016841F001010160006848
:10051000694600F001000590102000900320CDE90D
:100520000106124800F046FA124C114820604FF0C4
:10053000606060604020C4E9020600012061800024
:1005400060618000A0618011E0614002C4E908069A
:10055000204600F061F908B1FFF767FFAC60A563C2
:1005600006B070BD007400404038024000000240F8
:1005700088600240680200202DE9F04104460D46E3
:100580001746617900220698012920D0012666715C
:1005900002212171F5B1D4F80CC03149CCF83C10DE
:1005A000D4F80CC02F49CCF84010D4F80CC02E4918
:1005B000CCF84C102168D1F800C04CF0805CC1F838
:1005C00000C090B3042834D0082837D134E002208A
:1005D000BDE8F081D4F808C02449CCF83C10D4F828
:1005E00008C02349CCF84010D4F808C02149CCF801
:1005F0004C102168D1F800C04CF4805CC1F800C0F8
:1006000020B1042805D0082808D105E02268083266
:1006100004E022680C3201E0226810322068016890
:1006200041F400510160A0680EE0FFE72268143237
:1006300004E02268183201E022681C322068016858
:1006400041F000510160E068394600F04FF9206840
:100650000168AE403143016000206071B8E70000DE
:100660001903000863030008410300080903000898
:1006700059030008290300082DE9F84304464FF008
:100680000009CDF8009063484FF41651A56D00683D
:10069000B0FBF1F72E6894F85C10082000FA01F125
:1006A00031420FD021680A6852070BD50A6822F040
:1006B00004020A6094F85C108840A860606D40F005
:1006C0000100606594F85C104FF0010808FA01F031
:1006D000304208D021684969090604D5A860606DD8
:1006E00040F00200606594F85C10042088403042BD
:1006F00008D021680968890704D5A860606D40F0BA
:100700000400606594F85C1010208840304218D0D6
:1007100021680968090714D5A860206801684903A1
:1007200004D50068000308D5A16C07E00168C9057D
:1007300003D4016821F008010160216C09B1204651
:10074000884794F85C1020208840304231D02168DE
:100750000968C9062DD5A86094F8350005282068D9
:10076000016806D0490347D5006800031DD4616CB9
:100770001CE021F0160101602068416921F0800130
:100780004161206C08B9A06C20B12068016821F09B
:100790000801016094F85C103F208840A86084F84C
:1007A000349084F83580216D1FE0E16B09B120465B
:1007B0008847606D00282BD0606DC00714D00520DD
:1007C00084F835002068016821F00101016000987B
:1007D000401C0090B84203D820680068C007F6D1DA
:1007E00084F8349084F83580E16C002910D001B091
:1007F0002046BDE8F04308470168C905D5D4016823
:1008000021F01001016084F8349084F83580CCE741
:10081000BDE8F883100200202DE9F041044600F005
:10082000B1F906465CB1002584F83450022084F802
:1008300035002068016821F0010101600DE0012010
:10084000BDE8F08100F09EF9801B052805D9202025
:100850006065032084F83500F2E720680068C0076F
:10086000F0D12268116820480140D4E901031843FF
:10087000D4E903363343184363691843A369184323
:10088000E3691843236A18430843616A042903D1C2
:10089000D4E90B1319430843106020684069666A65
:1008A00020F0070130460E43012704280CD1A06A2E
:1008B0000643E06A40B12046FFF772FD20B14020B8
:1008C000606584F83570BAE7206846612046FFF716
:1008D00053FD94F85C203F2191408160656584F868
:1008E00035700020ACE700003F8010F02DE9F041AA
:1008F0000446866D90F83400002501280DD00120B3
:1009000084F8340094F835700020012F07D084F863
:10091000340002252846BDE8F0810220FBE70227CB
:1009200084F8357060652046FFF764FD94F85C102C
:100930003F208840B0602068016841F016010160E6
:10094000206C20B12068016841F008010160206836
:10095000016841F001010160DCE7000010B50446C8
:1009600040210B4800F002F90A49082C06D108681A
:10097000094A0A3008601368D862D0600868C8382D
:10098000B0F5967F02D940F24710086010BD000014
:10099000000002400000002028020020044910B599
:1009A0000A68024202D00860FFF7D8FF10BD0000BD
:1009B000143C01402DE9F84F00224FF001080325B7
:1009C0004FF00F0E0B6808FA02F42340A3426ED1D9
:1009D0004E68012E05D0022E03D0112E01D0122E0A
:1009E00012D186684FEA420C05FA0CF7BE43CF6875
:1009F00007FA0CF7374387604668A6430C79C4F3BF
:100A00000014944034434460C668570005FA07FC5C
:100A10008C6826EA0C06BC403443C4604C68022C47
:100A200001D0122C13D1D40800EB8404A346D4F8CF
:100A3000209054074FEAD46A0EFA0AF629EA06090A
:100A40000E6906FA0AF646EA0906CBF8206006683F
:100A50000C7926EA0C0604F00304BC40344304601D
:100A60004C68E40065D5364C266846F4804626601E
:100A7000246822F0030604F480440094314C34448A
:100A8000A446D4F808489607370F0EFA07F6B44381
:100A90002D4EB04201D1002624E02C4EB04201D1AF
:100AA00001261FE02A4EB04202D102261AE040E0A1
:100AB000284EB04201D1032614E0274EB04201D1A6
:100AC00004260FE0254EB04201D105260AE0244E4F
:100AD000B04201D1062605E0224EB04201D10726E0
:100AE00000E00826BE402643CCF808681E4E346855
:100AF0004F689C43FF0300D51C4334601A4C241DEF
:100B000026684F689E43BF0300D51E432660164EDD
:100B1000083634684F689C43FF0200D51C4334609C
:100B2000114E0C3634684F689C43BF0200D51C43FD
:100B30003460521C102AFFF445AFBDE8F88F000066
:100B400044380240003001400000024000040240EE
:100B500000080240000C0240001002400014024055
:100B600000180240001C0240003C0140426931EA8A
:100B7000020200D10904816170470AB181617047A6
:100B80000904FBE701488068704700000402002068
:100B90000248816802781144816070470402002095
:100BA0000B4810B5016841F400710160016841F41F
:100BB00080610160016841F480710160032000F0F0
:100BC0006FF8002000F006F800F024F8002010BDB7
:100BD000003C024070B50D4D04464FF47A71287800
:100BE000B1FBF0F00A490968B1FBF0F000F0E4FA5B
:100BF00048B9102C07D200222146501E00F030F8D0
:100C000000206C6070BD012070BD00000402002057
:100C1000100200200A4808B5016841F480410160D3
:100C2000006800F4804000900548001F016841F012
:100C300080510160006800F08050009008BD000005
:100C400044380240002809DB00F01F0201219140D6
:100C50004009800000F1E020C0F80011704700005A
:100C6000F0B40E4B1B680C46C3F30223C3F1070517
:100C7000042D00D90425191D072901D2002300E005
:100C8000DB1E012606FA05F1491E214099409E40CF
:100C9000761E16403143F0BC00F0F0BC0CED00E0D5
:100CA000064900F0070208684FF6FF03184040EAC3
:100CB0000220034A10430860704700000CED00E07A
:100CC0000000FA052DE9F0470E46050065D0DFF873
:100CD0001481D8F80000F7B200F00F00B04207D23C
:100CE00088F80070D8F8000000F00F00B04254D12E
:100CF00028683D4C810712D5400703D5206840F491
:100D0000E05020602878000703D5206840F4604058
:100D100020602068A96820F0F0000843206028784F
:100D2000C0072DD0304968680839012812D0022840
:100D300013D0032811D00968890700292DDA21680A
:100D400021F0030101432160FFF71CFF814641F2BE
:100D5000883A0EE009688903EFE709688901ECE742
:100D6000FFF710FFA0EB0901514502D90320BDE8B0
:100D7000F0872068696800F00C00B0EB810FEFD1BC
:100D8000D8F80010404601F00F01B14207D90770B2
:100D9000006800F00F00B04201D00120E7E728789A
:100DA000400705D52068E96820F4E050084320603A
:100DB0002878000706D52068296920F4604040EAB9
:100DC000C100206000F018F82168084AC1F303113F
:100DD000515CC8400649086006480068FFF7FAFE03
:100DE0000020C4E7003C02400838024050170008C9
:100DF0001002002008020020154810B5006810F00D
:100E00000C02144813D01449042A0FD0082A0ED11A
:100E10000F4C241F2268236802F03F025B0207D5B3
:100E20002068C0F38810A0FB010106E0084610BD51
:100E30002168C1F38811A1FB00010023FFF7C0F96D
:100E40002168C1F30141491C4900B0FBF1F010BD1C
:100E5000083802400024F40040787D012DE9F84F65
:100E600004006ED02078DFF83C93C007A9F1040598
:100E70004AD009F104000168C1F38101012908D0B9
:100E80000068C0F3810002280AD1D9F800004002AE
:100E900006D52868800337D560680028E1D033E0A4
:100EA0006068B0F5803F10D0B0F5A02F286810D052
:100EB00020F480302860286820F480202860606852
:100EC000A8B1FFF75FFE06460DE0286840F48030C9
:100ED000F4E740F480202860F7E700BFFFF752FEF8
:100EE000801B642873D828688003F7D50CE0FFF7CF
:100EF00049FE064605E000BFFFF744FE801B64285C
:100F0000F0D828688003F7D42078DFF89C82800727
:100F10004FF0000A3ED5A348001D016811F00C0FE8
:100F200008D00068C0F3810002280BD1D9F8000076
:100F3000400207D42868800716D5E068012800D150
:100F400012E02BE1E068B8B10120C8F80000FFF71B
:100F500019FE064605E000BFFFF714FE801B0228BD
:100F6000C0D828688007F7D52868216920F0F800E4
:100F700040EAC10028600DE0C8F800A0FFF702FEBB
:100F8000064604E0FFF7FEFD801B02281FD82868F4
:100F90008007F7D42078000722D5824E8348616904
:100FA000703671B101210160FFF7ECFD074604E0E6
:100FB000FFF7E8FDC01B022809D830688007F7D585
:100FC0000EE0C0F800A0FFF7DDFD074605E082E077
:100FD000FFF7D8FDC01B02287DD830688007F7D402
:100FE0002078400768D5DFF8BCB100270BF13C0B37
:100FF000DBF80000C0000BD4DBF8001041F080519A
:10100000CBF80010DBF80000012700F080500090C2
:10101000674E3068C00510D4306840F4807030608E
:10102000FFF7B0FD009005E0FFF7ACFD0099401A16
:10103000022850D83068C005F6D55A4EA0686C36E4
:1010400001280FD00528306810D020F00100306052
:10105000306820F004003060A068B8B1FFF792FD5E
:1010600000900FE0306840F00100F4E740F0040029
:101070003060F7E7FFF786FD0099411A41F28830AA
:10108000814266D830688007F4D50EE0FFF77AFD1C
:10109000009007E0FFF776FD0099411A41F2883091
:1010A000814256D830688007F4D42FB1DBF80010A5
:1010B00021F08051CBF80010A069C8B33949091D4F
:1010C0000968C1F3810102294AD00228504607D09D
:1010D000C8F8600000E03CE0FFF754FD04463BE048
:1010E0004746C8F86000FFF74DFD064605E000BF23
:1010F000FFF748FD801B02282BD828688001F7D411
:10110000D4E907010843A16A2A4A490802EB0141D0
:10111000626A41EA8211084394F82C1040EA0161A6
:10112000C9F8001001203866FFF72CFD044606E0E0
:1011300036E000BFFFF726FD001B022809D828680B
:101140008001F7D52CE000BFFFF71CFD001B022833
:1011500002D90320BDE8F88F28688001F4D41FE08D
:101160000128F7D0D9F80000E26900F4800191422B
:1011700014D1226A00F03F0191420FD147F6C071AD
:10118000626A0140914209D1A26A00F44031914261
:1011900004D1E16A00F07060884201D00120D9E7F3
:1011A0000020D7E70438024000004742800E474243
:1011B000007000400000FFFF10B5401EB0F1807FBE
:1011C00001D3012010BD4FF0E02460610F216017B2
:1011D00000F054FA0020A06107202061002010BD1B
:1011E00070B590F83C20012A32D0012480F83C40B0
:1011F000022280F83D2003685A689D6822F070063C
:101200000A6832435A60134B02689A4214D0B2F112
:10121000804F11D0104B9A420ED0104B9A420BD0F7
:101220000F4B9A4208D00F4B9A4205D00E4B9A4270
:1012300002D00E4B9A4204D1496825F0800319432D
:10124000916080F83D40002180F83C10084670BD58
:10125000022070BD00000140000400400008004072
:10126000000C004000040140004001400018004014
:1012700010B5040003D094F83D0010B107E0012040
:1012800010BD002084F83C00204600F00DF802203C
:1012900084F83D00211D206800F056F9012084F8F3
:1012A0003D00002010BD000008B50068B0F1804F7F
:1012B00008D10548016841F001010160006800F0B3
:1012C0000100009008BD000040380240022180F873
:1012D0003D1001688A6802F00702062A03D00A68F6
:1012E00042F001020A60012180F83D1000207047A1
:1012F00070B5044690F83C00012817D0012584F809
:101300003C50022084F83D002068826822F0770279
:1013100022F47F4282600868502830D00DDC2028FB
:101320004DD005DC98B310283BD148E0022070BDB9
:10133000302844D0402834D139E0602828D07028A3
:1013400006D0B0F5805F2CD0B0F5005F29D10AE05F
:10135000CB68D1E90121206800F05AF92068816842
:1013600041F0770109E0CB68D1E90121206800F064
:101370004FF92068816841F48041816011E0CA68BA
:101380004968206800F056F95021206807E016E00F
:10139000CA684968206800F05EF96021206800F0A2
:1013A00041F984F83D50002084F83C0070BDCA68C3
:1013B0004968206800F03EF940212068EFE7226884
:1013C00001461046EBE7FEE770B586B0142168468B
:1013D000FEF72EFF1E480024016841F01001016055
:1013E000016801F010010591016841F001010160FF
:1013F0000068184E00F0010005902246402130465A
:10140000FFF7BBFB1820009013480125CDE901052B
:1014100069461248FFF7CEFA40200090CDE901540A
:10142000694630460394FFF7C5FA002211460920A9
:10143000FFF716FC0920FFF705FC002211460A20E1
:10144000FFF70EFC0A20FFF7FDFB06B070BD0000A1
:10145000303802400000024000001110001002402D
:1014600010B586B0002411480094019402940394AE
:1014700004944FF080410594C0E9001440F24711F4
:10148000C0E9024104618461FFF7F2FE4FF480502D
:10149000009069460548FFF72BFF2020CDE90404A2
:1014A00004A90248FFF79CFE06B010BD28020020E8
:1014B000FEE7704770477047FFF76ABB10B592B000
:1014C00030216846FEF7B4FE14210CA8FEF7B0FEEA
:1014D00014480024016841F080510160006800F068
:1014E000805011901048016841F48041016000680B
:1014F000069400F480401190022000900120039097
:10150000102004906846FFF7A9FC0F20CDE90C04D9
:101510000E940F9400210CA81094FFF7D3FB12B087
:1015200010BD0000403802400070004005480168CE
:1015300041F47001016003494FF000608039086098
:101540007047000088ED00E0F0B50268254C264D9C
:10155000264E274F274B4FF0804CA04209D06045C4
:1015600007D0A84205D0B04203D0B84201D098427B
:1015700004D122F0700E4A6842EA0E02A0421BD04B
:10158000604519D0A84217D0B04215D0B84213D048
:10159000984211D0184DA8420ED0184DA8420BD039
:1015A000174DA84208D0174DA84205D0164DA842A5
:1015B00002D0164DA84203D122F44075CA682A43CE
:1015C0004D6922F080022A4302608A68C2620A687A
:1015D0008262A04201D0984201D1096901630121D0
:1015E0004161F0BD000001400004004000080040DF
:1015F000000C004000040140004001400044014054
:101600000048014000180040001C0040002000403D
:1016100010B5846842EA032224F47F440A4322433B
:10162000826010BD826822F070020A4342F0070116
:101630008160704710B5036A046A24F001040462F3
:10164000846924F0F00444EA021423F00A020A43F5
:101650008461026210BD10B5036A23F010030362B7
:101660008369046A23F4704343EA023224F0A0033E
:1016700043EA01118261016210BDFEE70907090E0C
:10168000002804DB00F1E02080F80014704700F02F
:101690000F0000F1E02080F8141D704702E008C838
:1016A000121F08C1002AFAD170477047002001E0DC
:1016B00001C1121F002AFBD1704700001CB5FFF7C3
:1016C0006FFAFFF7FBFEFFF77FFE1B48002401685F
:1016D00041F4001101600068224600F400100090FF
:1016E00021461020FFF7BCFA1020FFF7ABFA14498F
:1016F00000941248019408600846FEF7D8FE2420A2
:10170000CDE90004002269460D48FEF7ACFE4FF417
:10171000407200210A48FEF78CFEFFF7A1FE8023ED
:10172000084A002106480094FEF726FF04481430BA
:10173000FFF7CCFDFEE700003038024000740040A7
:1017400014020020040000200006101600061016E7
:101750000000000000000000010203040607080961
:10176000801700080000002014020000A8020008F2
:10177000DC18000814020020B4040000AC160008B5
:1017800030044701000112400412810412C10C12FE
:10179000021412420412830412C30C100604020045
:1017A00000440412850412C50C100606030000460E
:1017B0000412870412C70C10060804000048041223
:1017C000890412C90C10060A0500004A04128B0491
:1017D00012CB0C10060C0600004C04128D0412CD26
:1017E0000C10060E0700004E04128F0412CF0C10CE
:1017F0000610080000500412910412D10C100612B9
:10180000090000520412930412D30C1006140A00AB
:1018100000540412950412D50C1006150B00005646
:101820000412960412D70C1006170C00005804126C
:10183000980412D90C1006190D00005A04129A04CB
:1018400012DB0C10061B0E00005C04129C0412DD5F
:101850000C10061D0F00005E04129E0452DF04529D
:101860009E14211C52DD2C2134213C52DB4C21548E
:10187000215C52D96C2174217C52D78C2194219CFB
:1018800052D5AC21B421BC52D3CC21D421DC52D1CD
:10189000EC21F421FC56CF0C2514251C56CD2C250B
:1018A00034253C56CB4C2554255C56C96C257425F3
:1018B0007C56C78C2594259C56C5AC25B425BC56B2
:1018C000C3CC25D425DC56C1EC4640FB2A0003528C
:0C18D000100C0005000024F400000000D3
:040000050800018965
:00000001FF
